{
  "_format": "hh-sol-artifact-1",
  "contractName": "SportSpot",
  "sourceName": "contracts/SportSpot.sol",
  "abi": [
    {
      "anonymous": false,
      "inputs": [
        {
          "indexed": true,
          "internalType": "uint256",
          "name": "bookingId",
          "type": "uint256"
        }
      ],
      "name": "BookingCancelled",
      "type": "event"
    },
    {
      "anonymous": false,
      "inputs": [
        {
          "indexed": true,
          "internalType": "address",
          "name": "receiver",
          "type": "address"
        },
        {
          "indexed": false,
          "internalType": "uint256",
          "name": "amount",
          "type": "uint256"
        }
      ],
      "name": "PaymentWithdrawn",
      "type": "event"
    },
    {
      "anonymous": false,
      "inputs": [
        {
          "indexed": true,
          "internalType": "uint256",
          "name": "bookingId",
          "type": "uint256"
        },
        {
          "indexed": true,
          "internalType": "uint256",
          "name": "venueId",
          "type": "uint256"
        },
        {
          "indexed": true,
          "internalType": "address",
          "name": "booker",
          "type": "address"
        }
      ],
      "name": "VenueBooked",
      "type": "event"
    },
    {
      "anonymous": false,
      "inputs": [
        {
          "indexed": true,
          "internalType": "uint256",
          "name": "venueId",
          "type": "uint256"
        },
        {
          "indexed": false,
          "internalType": "string",
          "name": "name",
          "type": "string"
        },
        {
          "indexed": true,
          "internalType": "address",
          "name": "owner",
          "type": "address"
        }
      ],
      "name": "VenueRegistered",
      "type": "event"
    },
    {
      "inputs": [
        {
          "internalType": "uint256",
          "name": "_venueId",
          "type": "uint256"
        },
        {
          "internalType": "uint256",
          "name": "_timeSlot",
          "type": "uint256"
        },
        {
          "internalType": "uint256",
          "name": "_bookingDuration",
          "type": "uint256"
        }
      ],
      "name": "bookVenue",
      "outputs": [
        {
          "internalType": "uint256",
          "name": "",
          "type": "uint256"
        }
      ],
      "stateMutability": "payable",
      "type": "function"
    },
    {
      "inputs": [
        {
          "internalType": "uint256",
          "name": "_bookingId",
          "type": "uint256"
        }
      ],
      "name": "cancelBooking",
      "outputs": [
        {
          "internalType": "bool",
          "name": "",
          "type": "bool"
        }
      ],
      "stateMutability": "nonpayable",
      "type": "function"
    },
    {
      "inputs": [
        {
          "internalType": "uint256",
          "name": "_venueId",
          "type": "uint256"
        },
        {
          "internalType": "uint256",
          "name": "_timeSlot",
          "type": "uint256"
        }
      ],
      "name": "checkTimeSlotAvailability",
      "outputs": [
        {
          "internalType": "bool",
          "name": "",
          "type": "bool"
        }
      ],
      "stateMutability": "view",
      "type": "function"
    },
    {
      "inputs": [],
      "name": "getAllVenues",
      "outputs": [
        {
          "internalType": "uint256[]",
          "name": "",
          "type": "uint256[]"
        }
      ],
      "stateMutability": "view",
      "type": "function"
    },
    {
      "inputs": [
        {
          "internalType": "uint256",
          "name": "_bookingId",
          "type": "uint256"
        }
      ],
      "name": "getBookingDetails",
      "outputs": [
        {
          "internalType": "uint256",
          "name": "venueId",
          "type": "uint256"
        },
        {
          "internalType": "uint256",
          "name": "timeSlot",
          "type": "uint256"
        },
        {
          "internalType": "uint256",
          "name": "bookingDuration",
          "type": "uint256"
        },
        {
          "internalType": "address",
          "name": "booker",
          "type": "address"
        },
        {
          "internalType": "bool",
          "name": "isCancelled",
          "type": "bool"
        }
      ],
      "stateMutability": "view",
      "type": "function"
    },
    {
      "inputs": [
        {
          "internalType": "address",
          "name": "_user",
          "type": "address"
        }
      ],
      "name": "getUserBookings",
      "outputs": [
        {
          "internalType": "uint256[]",
          "name": "",
          "type": "uint256[]"
        }
      ],
      "stateMutability": "view",
      "type": "function"
    },
    {
      "inputs": [
        {
          "internalType": "uint256",
          "name": "_venueId",
          "type": "uint256"
        }
      ],
      "name": "getVenueDetails",
      "outputs": [
        {
          "internalType": "string",
          "name": "name",
          "type": "string"
        },
        {
          "internalType": "string",
          "name": "sportType",
          "type": "string"
        },
        {
          "internalType": "uint256",
          "name": "hourlyRate",
          "type": "uint256"
        },
        {
          "internalType": "string",
          "name": "latitude",
          "type": "string"
        },
        {
          "internalType": "string",
          "name": "longitude",
          "type": "string"
        },
        {
          "internalType": "address",
          "name": "owner",
          "type": "address"
        },
        {
          "internalType": "bool",
          "name": "isActive",
          "type": "bool"
        }
      ],
      "stateMutability": "view",
      "type": "function"
    },
    {
      "inputs": [
        {
          "internalType": "string",
          "name": "_name",
          "type": "string"
        },
        {
          "internalType": "string",
          "name": "_sportType",
          "type": "string"
        },
        {
          "internalType": "uint256",
          "name": "_hourlyRate",
          "type": "uint256"
        },
        {
          "internalType": "string",
          "name": "_latitude",
          "type": "string"
        },
        {
          "internalType": "string",
          "name": "_longitude",
          "type": "string"
        }
      ],
      "name": "registerVenue",
      "outputs": [
        {
          "internalType": "uint256",
          "name": "",
          "type": "uint256"
        }
      ],
      "stateMutability": "nonpayable",
      "type": "function"
    },
    {
      "inputs": [],
      "name": "withdrawPayment",
      "outputs": [],
      "stateMutability": "nonpayable",
      "type": "function"
    }
  ],
  "bytecode": "0x608060405234801561001057600080fd5b50612f74806100206000396000f3fe6080604052600436106100865760003560e01c806385d1c76c1161005957806385d1c76c146101605780638db3ed601461019d578063a118babd146101de578063a2b8ccb6146101f5578063ef3197c81461023857610086565b80630dca825e1461008b5780631e85f253146100c857806341758a9d146100f857806344c5115114610123575b600080fd5b34801561009757600080fd5b506100b260048036038101906100ad9190611dd4565b610275565b6040516100bf9190611e1c565b60405180910390f35b6100e260048036038101906100dd9190611e37565b610884565b6040516100ef9190611e99565b60405180910390f35b34801561010457600080fd5b5061010d610f94565b60405161011a9190611f72565b60405180910390f35b34801561012f57600080fd5b5061014a600480360381019061014591906120da565b611069565b6040516101579190611e99565b60405180910390f35b34801561016c57600080fd5b50610187600480360381019061018291906121c5565b6112a6565b6040516101949190611e1c565b60405180910390f35b3480156101a957600080fd5b506101c460048036038101906101bf9190611dd4565b611399565b6040516101d5959493929190612246565b60405180910390f35b3480156101ea57600080fd5b506101f36114d9565b005b34801561020157600080fd5b5061021c60048036038101906102179190611dd4565b61178c565b60405161022f9796959493929190612318565b60405180910390f35b34801561024457600080fd5b5061025f600480360381019061025a91906123cf565b611b7a565b60405161026c9190611f72565b60405180910390f35b60008160008111801561028a57506001548111155b6102c9576040517f08c379a00000000000000000000000000000000000000000000000000000000081526004016102c090612448565b60405180910390fd5b3373ffffffffffffffffffffffffffffffffffffffff166003600083815260200190815260200160002060040160009054906101000a900473ffffffffffffffffffffffffffffffffffffffff1673ffffffffffffffffffffffffffffffffffffffff161461036d576040517f08c379a0000000000000000000000000000000000000000000000000000000008152600401610364906124b4565b60405180910390fd5b6003600082815260200190815260200160002060040160149054906101000a900460ff16156103d1576040517f08c379a00000000000000000000000000000000000000000000000000000000081526004016103c890612520565b60405180910390fd5b60006003600085815260200190815260200160002090506000600260008360010154815260200190815260200160002060405180610100016040529081600082015481526020016001820180546104279061256f565b80601f01602080910402602001604051908101604052809291908181526020018280546104539061256f565b80156104a05780601f10610475576101008083540402835291602001916104a0565b820191906000526020600020905b81548152906001019060200180831161048357829003601f168201915b505050505081526020016002820180546104b99061256f565b80601f01602080910402602001604051908101604052809291908181526020018280546104e59061256f565b80156105325780601f1061050757610100808354040283529160200191610532565b820191906000526020600020905b81548152906001019060200180831161051557829003601f168201915b50505050508152602001600382015481526020016004820180546105559061256f565b80601f01602080910402602001604051908101604052809291908181526020018280546105819061256f565b80156105ce5780601f106105a3576101008083540402835291602001916105ce565b820191906000526020600020905b8154815290600101906020018083116105b157829003601f168201915b505050505081526020016005820180546105e79061256f565b80601f01602080910402602001604051908101604052809291908181526020018280546106139061256f565b80156106605780601f1061063557610100808354040283529160200191610660565b820191906000526020600020905b81548152906001019060200180831161064357829003601f168201915b505050505081526020016006820160009054906101000a900473ffffffffffffffffffffffffffffffffffffffff1673ffffffffffffffffffffffffffffffffffffffff1673ffffffffffffffffffffffffffffffffffffffff1681526020016006820160149054906101000a900460ff161515151581525050905062015180426106eb91906125cf565b826002015411610730576040517f08c379a00000000000000000000000000000000000000000000000000000000081526004016107279061264f565b60405180910390fd5b60005b82600301548110156107b5576000610e108261074f919061266f565b846002015461075e91906125cf565b905060006004600086600101548152602001908152602001600020600083815260200190815260200160002060006101000a81548160ff0219169083151502179055505080806107ad906126b1565b915050610733565b5060018260040160146101000a81548160ff02191690831515021790555060006064605a846003015484606001516107ed919061266f565b6107f7919061266f565b6108019190612728565b90503373ffffffffffffffffffffffffffffffffffffffff166108fc829081150290604051600060405180830381858888f19350505050158015610849573d6000803e3d6000fd5b50857ff774c001cb52a3566b767ed6e37c92706acb2b80a3ff6049e2849cd62725d08560405160405180910390a26001945050505050919050565b60008360008111801561089957506000548111155b6108d8576040517f08c379a00000000000000000000000000000000000000000000000000000000081526004016108cf906127a5565b60405180910390fd5b6002600082815260200190815260200160002060060160149054906101000a900460ff1661093b576040517f08c379a000000000000000000000000000000000000000000000000000000000815260040161093290612811565b60405180910390fd5b42841161097d576040517f08c379a00000000000000000000000000000000000000000000000000000000081526004016109749061287d565b60405180910390fd5b600083116109c0576040517f08c379a00000000000000000000000000000000000000000000000000000000081526004016109b79061290f565b60405180910390fd5b6018831115610a04576040517f08c379a00000000000000000000000000000000000000000000000000000000081526004016109fb906129a1565b60405180910390fd5b6000600260008781526020019081526020016000206040518061010001604052908160008201548152602001600182018054610a3f9061256f565b80601f0160208091040260200160405190810160405280929190818152602001828054610a6b9061256f565b8015610ab85780601f10610a8d57610100808354040283529160200191610ab8565b820191906000526020600020905b815481529060010190602001808311610a9b57829003601f168201915b50505050508152602001600282018054610ad19061256f565b80601f0160208091040260200160405190810160405280929190818152602001828054610afd9061256f565b8015610b4a5780601f10610b1f57610100808354040283529160200191610b4a565b820191906000526020600020905b815481529060010190602001808311610b2d57829003601f168201915b5050505050815260200160038201548152602001600482018054610b6d9061256f565b80601f0160208091040260200160405190810160405280929190818152602001828054610b999061256f565b8015610be65780601f10610bbb57610100808354040283529160200191610be6565b820191906000526020600020905b815481529060010190602001808311610bc957829003601f168201915b50505050508152602001600582018054610bff9061256f565b80601f0160208091040260200160405190810160405280929190818152602001828054610c2b9061256f565b8015610c785780601f10610c4d57610100808354040283529160200191610c78565b820191906000526020600020905b815481529060010190602001808311610c5b57829003601f168201915b505050505081526020016006820160009054906101000a900473ffffffffffffffffffffffffffffffffffffffff1673ffffffffffffffffffffffffffffffffffffffff1673ffffffffffffffffffffffffffffffffffffffff1681526020016006820160149054906101000a900460ff16151515158152505090506000848260600151610d06919061266f565b905080341015610d4b576040517f08c379a0000000000000000000000000000000000000000000000000000000008152600401610d4290612a0d565b60405180910390fd5b60005b85811015610e36576000610e1082610d66919061266f565b88610d7191906125cf565b9050600460008a8152602001908152602001600020600082815260200190815260200160002060009054906101000a900460ff1615610de5576040517f08c379a0000000000000000000000000000000000000000000000000000000008152600401610ddc90612a79565b60405180910390fd5b6001600460008b8152602001908152602001600020600083815260200190815260200160002060006101000a81548160ff021916908315150217905550508080610e2e906126b1565b915050610d4e565b5060016000815480929190610e4a906126b1565b9190505550600060015490506040518060c001604052808281526020018981526020018881526020018781526020013373ffffffffffffffffffffffffffffffffffffffff16815260200160001515815250600360008381526020019081526020016000206000820151816000015560208201518160010155604082015181600201556060820151816003015560808201518160040160006101000a81548173ffffffffffffffffffffffffffffffffffffffff021916908373ffffffffffffffffffffffffffffffffffffffff16021790555060a08201518160040160146101000a81548160ff0219169083151502179055509050503373ffffffffffffffffffffffffffffffffffffffff1688827fffd4655ef52cb98ccb06fe284b185911ffa81ba30f6874e112a1d2547a3e19d160405160405180910390a4809450505050509392505050565b60606000805467ffffffffffffffff811115610fb357610fb2611faf565b5b604051908082528060200260200182016040528015610fe15781602001602082028036833780820191505090505b509050600080600190505b6000548111611060576002600082815260200190815260200160002060060160149054906101000a900460ff161561104d578083838151811061103257611031612a99565b5b6020026020010181815250508180611049906126b1565b9250505b8080611058906126b1565b915050610fec565b50819250505090565b6000808651116110ae576040517f08c379a00000000000000000000000000000000000000000000000000000000081526004016110a590612b14565b60405180910390fd5b600084116110f1576040517f08c379a00000000000000000000000000000000000000000000000000000000081526004016110e890612ba6565b60405180910390fd5b600080815480929190611103906126b1565b91905055506000805490506040518061010001604052808281526020018881526020018781526020018681526020018581526020018481526020013373ffffffffffffffffffffffffffffffffffffffff16815260200160011515815250600260008381526020019081526020016000206000820151816000015560208201518160010190816111939190612d72565b5060408201518160020190816111a99190612d72565b506060820151816003015560808201518160040190816111c99190612d72565b5060a08201518160050190816111df9190612d72565b5060c08201518160060160006101000a81548173ffffffffffffffffffffffffffffffffffffffff021916908373ffffffffffffffffffffffffffffffffffffffff16021790555060e08201518160060160146101000a81548160ff0219169083151502179055509050503373ffffffffffffffffffffffffffffffffffffffff16817f5ebb25fb7aa540ad11ae2b46396ff64ef9d7fc482981f8bae05acc7c48d63677896040516112919190612e44565b60405180910390a38091505095945050505050565b6000826000811180156112bb57506000548111155b6112fa576040517f08c379a00000000000000000000000000000000000000000000000000000000081526004016112f1906127a5565b60405180910390fd5b6002600082815260200190815260200160002060060160149054906101000a900460ff1661135d576040517f08c379a000000000000000000000000000000000000000000000000000000000815260040161135490612811565b60405180910390fd5b60046000858152602001908152602001600020600084815260200190815260200160002060009054906101000a900460ff161591505092915050565b600080600080600080861180156113b257506001548611155b6113f1576040517f08c379a00000000000000000000000000000000000000000000000000000000081526004016113e890612448565b60405180910390fd5b6000600360008881526020019081526020016000206040518060c0016040529081600082015481526020016001820154815260200160028201548152602001600382015481526020016004820160009054906101000a900473ffffffffffffffffffffffffffffffffffffffff1673ffffffffffffffffffffffffffffffffffffffff1673ffffffffffffffffffffffffffffffffffffffff1681526020016004820160149054906101000a900460ff161515151581525050905080602001518160400151826060015183608001518460a00151955095509550955095505091939590929450565b600080600190505b600154811161166d576000600360008381526020019081526020016000206040518060c0016040529081600082015481526020016001820154815260200160028201548152602001600382015481526020016004820160009054906101000a900473ffffffffffffffffffffffffffffffffffffffff1673ffffffffffffffffffffffffffffffffffffffff1673ffffffffffffffffffffffffffffffffffffffff1681526020016004820160149054906101000a900460ff16151515158152505090508060a0015115801561161c57503373ffffffffffffffffffffffffffffffffffffffff16600260008360200151815260200190815260200160002060060160009054906101000a900473ffffffffffffffffffffffffffffffffffffffff1673ffffffffffffffffffffffffffffffffffffffff16145b1561165957806060015160026000836020015181526020019081526020016000206003015461164b919061266f565b8361165691906125cf565b92505b508080611665906126b1565b9150506114e1565b50600081116116b1576040517f08c379a00000000000000000000000000000000000000000000000000000000081526004016116a890612eb2565b60405180910390fd5b804710156116f4576040517f08c379a00000000000000000000000000000000000000000000000000000000081526004016116eb90612f1e565b60405180910390fd5b3373ffffffffffffffffffffffffffffffffffffffff166108fc829081150290604051600060405180830381858888f1935050505015801561173a573d6000803e3d6000fd5b503373ffffffffffffffffffffffffffffffffffffffff167f84511ecc081974f18e7f3e0dcc19db078b55bbd3852ddd0dd85b3aebb7bf94c2826040516117819190611e99565b60405180910390a250565b6060806000606080600080876000811180156117aa57506000548111155b6117e9576040517f08c379a00000000000000000000000000000000000000000000000000000000081526004016117e0906127a5565b60405180910390fd5b6002600082815260200190815260200160002060060160149054906101000a900460ff1661184c576040517f08c379a000000000000000000000000000000000000000000000000000000000815260040161184390612811565b60405180910390fd5b6000600260008b815260200190815260200160002060405180610100016040529081600082015481526020016001820180546118879061256f565b80601f01602080910402602001604051908101604052809291908181526020018280546118b39061256f565b80156119005780601f106118d557610100808354040283529160200191611900565b820191906000526020600020905b8154815290600101906020018083116118e357829003601f168201915b505050505081526020016002820180546119199061256f565b80601f01602080910402602001604051908101604052809291908181526020018280546119459061256f565b80156119925780601f1061196757610100808354040283529160200191611992565b820191906000526020600020905b81548152906001019060200180831161197557829003601f168201915b50505050508152602001600382015481526020016004820180546119b59061256f565b80601f01602080910402602001604051908101604052809291908181526020018280546119e19061256f565b8015611a2e5780601f10611a0357610100808354040283529160200191611a2e565b820191906000526020600020905b815481529060010190602001808311611a1157829003601f168201915b50505050508152602001600582018054611a479061256f565b80601f0160208091040260200160405190810160405280929190818152602001828054611a739061256f565b8015611ac05780601f10611a9557610100808354040283529160200191611ac0565b820191906000526020600020905b815481529060010190602001808311611aa357829003601f168201915b505050505081526020016006820160009054906101000a900473ffffffffffffffffffffffffffffffffffffffff1673ffffffffffffffffffffffffffffffffffffffff1673ffffffffffffffffffffffffffffffffffffffff1681526020016006820160149054906101000a900460ff161515151581525050905080602001518160400151826060015183608001518460a001518560c001518660e0015198509850985098509850985098505050919395979092949650565b6060600080600190505b6001548111611c46578373ffffffffffffffffffffffffffffffffffffffff166003600083815260200190815260200160002060040160009054906101000a900473ffffffffffffffffffffffffffffffffffffffff1673ffffffffffffffffffffffffffffffffffffffff16148015611c1f57506003600082815260200190815260200160002060040160149054906101000a900460ff16155b15611c33578180611c2f906126b1565b9250505b8080611c3e906126b1565b915050611b84565b5060008167ffffffffffffffff811115611c6357611c62611faf565b5b604051908082528060200260200182016040528015611c915781602001602082028036833780820191505090505b509050600080600190505b6001548111611d7e578573ffffffffffffffffffffffffffffffffffffffff166003600083815260200190815260200160002060040160009054906101000a900473ffffffffffffffffffffffffffffffffffffffff1673ffffffffffffffffffffffffffffffffffffffff16148015611d3757506003600082815260200190815260200160002060040160149054906101000a900460ff16155b15611d6b5780838381518110611d5057611d4f612a99565b5b6020026020010181815250508180611d67906126b1565b9250505b8080611d76906126b1565b915050611c9c565b50819350505050919050565b6000604051905090565b600080fd5b600080fd5b6000819050919050565b611db181611d9e565b8114611dbc57600080fd5b50565b600081359050611dce81611da8565b92915050565b600060208284031215611dea57611de9611d94565b5b6000611df884828501611dbf565b91505092915050565b60008115159050919050565b611e1681611e01565b82525050565b6000602082019050611e316000830184611e0d565b92915050565b600080600060608486031215611e5057611e4f611d94565b5b6000611e5e86828701611dbf565b9350506020611e6f86828701611dbf565b9250506040611e8086828701611dbf565b9150509250925092565b611e9381611d9e565b82525050565b6000602082019050611eae6000830184611e8a565b92915050565b600081519050919050565b600082825260208201905092915050565b6000819050602082019050919050565b611ee981611d9e565b82525050565b6000611efb8383611ee0565b60208301905092915050565b6000602082019050919050565b6000611f1f82611eb4565b611f298185611ebf565b9350611f3483611ed0565b8060005b83811015611f65578151611f4c8882611eef565b9750611f5783611f07565b925050600181019050611f38565b5085935050505092915050565b60006020820190508181036000830152611f8c8184611f14565b905092915050565b600080fd5b600080fd5b6000601f19601f8301169050919050565b7f4e487b7100000000000000000000000000000000000000000000000000000000600052604160045260246000fd5b611fe782611f9e565b810181811067ffffffffffffffff8211171561200657612005611faf565b5b80604052505050565b6000612019611d8a565b90506120258282611fde565b919050565b600067ffffffffffffffff82111561204557612044611faf565b5b61204e82611f9e565b9050602081019050919050565b82818337600083830152505050565b600061207d6120788461202a565b61200f565b90508281526020810184848401111561209957612098611f99565b5b6120a484828561205b565b509392505050565b600082601f8301126120c1576120c0611f94565b5b81356120d184826020860161206a565b91505092915050565b600080600080600060a086880312156120f6576120f5611d94565b5b600086013567ffffffffffffffff81111561211457612113611d99565b5b612120888289016120ac565b955050602086013567ffffffffffffffff81111561214157612140611d99565b5b61214d888289016120ac565b945050604061215e88828901611dbf565b935050606086013567ffffffffffffffff81111561217f5761217e611d99565b5b61218b888289016120ac565b925050608086013567ffffffffffffffff8111156121ac576121ab611d99565b5b6121b8888289016120ac565b9150509295509295909350565b600080604083850312156121dc576121db611d94565b5b60006121ea85828601611dbf565b92505060206121fb85828601611dbf565b9150509250929050565b600073ffffffffffffffffffffffffffffffffffffffff82169050919050565b600061223082612205565b9050919050565b61224081612225565b82525050565b600060a08201905061225b6000830188611e8a565b6122686020830187611e8a565b6122756040830186611e8a565b6122826060830185612237565b61228f6080830184611e0d565b9695505050505050565b600081519050919050565b600082825260208201905092915050565b60005b838110156122d35780820151818401526020810190506122b8565b60008484015250505050565b60006122ea82612299565b6122f481856122a4565b93506123048185602086016122b5565b61230d81611f9e565b840191505092915050565b600060e0820190508181036000830152612332818a6122df565b9050818103602083015261234681896122df565b90506123556040830188611e8a565b818103606083015261236781876122df565b9050818103608083015261237b81866122df565b905061238a60a0830185612237565b61239760c0830184611e0d565b98975050505050505050565b6123ac81612225565b81146123b757600080fd5b50565b6000813590506123c9816123a3565b92915050565b6000602082840312156123e5576123e4611d94565b5b60006123f3848285016123ba565b91505092915050565b7f496e76616c696420626f6f6b696e672049440000000000000000000000000000600082015250565b60006124326012836122a4565b915061243d826123fc565b602082019050919050565b6000602082019050818103600083015261246181612425565b9050919050565b7f4e6f7420626f6f6b696e67206f776e6572000000000000000000000000000000600082015250565b600061249e6011836122a4565b91506124a982612468565b602082019050919050565b600060208201905081810360008301526124cd81612491565b9050919050565b7f426f6f6b696e6720616c72656164792063616e63656c6c656400000000000000600082015250565b600061250a6019836122a4565b9150612515826124d4565b602082019050919050565b60006020820190508181036000830152612539816124fd565b9050919050565b7f4e487b7100000000000000000000000000000000000000000000000000000000600052602260045260246000fd5b6000600282049050600182168061258757607f821691505b60208210810361259a57612599612540565b5b50919050565b7f4e487b7100000000000000000000000000000000000000000000000000000000600052601160045260246000fd5b60006125da82611d9e565b91506125e583611d9e565b92508282019050808211156125fd576125fc6125a0565b5b92915050565b7f546f6f206c61746520746f2063616e63656c0000000000000000000000000000600082015250565b60006126396012836122a4565b915061264482612603565b602082019050919050565b600060208201905081810360008301526126688161262c565b9050919050565b600061267a82611d9e565b915061268583611d9e565b925082820261269381611d9e565b915082820484148315176126aa576126a96125a0565b5b5092915050565b60006126bc82611d9e565b91507fffffffffffffffffffffffffffffffffffffffffffffffffffffffffffffffff82036126ee576126ed6125a0565b5b600182019050919050565b7f4e487b7100000000000000000000000000000000000000000000000000000000600052601260045260246000fd5b600061273382611d9e565b915061273e83611d9e565b92508261274e5761274d6126f9565b5b828204905092915050565b7f496e76616c69642076656e756520494400000000000000000000000000000000600082015250565b600061278f6010836122a4565b915061279a82612759565b602082019050919050565b600060208201905081810360008301526127be81612782565b9050919050565b7f56656e7565206e6f742061637469766500000000000000000000000000000000600082015250565b60006127fb6010836122a4565b9150612806826127c5565b602082019050919050565b6000602082019050818103600083015261282a816127ee565b9050919050565b7f43616e6e6f7420626f6f6b20696e207468652070617374000000000000000000600082015250565b60006128676017836122a4565b915061287282612831565b602082019050919050565b600060208201905081810360008301526128968161285a565b9050919050565b7f4475726174696f6e206d7573742062652067726561746572207468616e207a6560008201527f726f000000000000000000000000000000000000000000000000000000000000602082015250565b60006128f96022836122a4565b91506129048261289d565b604082019050919050565b60006020820190508181036000830152612928816128ec565b9050919050565b7f43616e6e6f7420626f6f6b20666f72206d6f7265207468616e20323420686f7560008201527f7273000000000000000000000000000000000000000000000000000000000000602082015250565b600061298b6022836122a4565b91506129968261292f565b604082019050919050565b600060208201905081810360008301526129ba8161297e565b9050919050565b7f496e73756666696369656e74207061796d656e74000000000000000000000000600082015250565b60006129f76014836122a4565b9150612a02826129c1565b602082019050919050565b60006020820190508181036000830152612a26816129ea565b9050919050565b7f54696d6520736c6f74206e6f7420617661696c61626c65000000000000000000600082015250565b6000612a636017836122a4565b9150612a6e82612a2d565b602082019050919050565b60006020820190508181036000830152612a9281612a56565b9050919050565b7f4e487b7100000000000000000000000000000000000000000000000000000000600052603260045260246000fd5b7f4e616d652063616e6e6f7420626520656d707479000000000000000000000000600082015250565b6000612afe6014836122a4565b9150612b0982612ac8565b602082019050919050565b60006020820190508181036000830152612b2d81612af1565b9050919050565b7f486f75726c792072617465206d7573742062652067726561746572207468616e60008201527f207a65726f000000000000000000000000000000000000000000000000000000602082015250565b6000612b906025836122a4565b9150612b9b82612b34565b604082019050919050565b60006020820190508181036000830152612bbf81612b83565b9050919050565b60008190508160005260206000209050919050565b60006020601f8301049050919050565b600082821b905092915050565b600060088302612c287fffffffffffffffffffffffffffffffffffffffffffffffffffffffffffffffff82612beb565b612c328683612beb565b95508019841693508086168417925050509392505050565b6000819050919050565b6000612c6f612c6a612c6584611d9e565b612c4a565b611d9e565b9050919050565b6000819050919050565b612c8983612c54565b612c9d612c9582612c76565b848454612bf8565b825550505050565b600090565b612cb2612ca5565b612cbd818484612c80565b505050565b5b81811015612ce157612cd6600082612caa565b600181019050612cc3565b5050565b601f821115612d2657612cf781612bc6565b612d0084612bdb565b81016020851015612d0f578190505b612d23612d1b85612bdb565b830182612cc2565b50505b505050565b600082821c905092915050565b6000612d4960001984600802612d2b565b1980831691505092915050565b6000612d628383612d38565b9150826002028217905092915050565b612d7b82612299565b67ffffffffffffffff811115612d9457612d93611faf565b5b612d9e825461256f565b612da9828285612ce5565b600060209050601f831160018114612ddc5760008415612dca578287015190505b612dd48582612d56565b865550612e3c565b601f198416612dea86612bc6565b60005b82811015612e1257848901518255600182019150602085019450602081019050612ded565b86831015612e2f5784890151612e2b601f891682612d38565b8355505b6001600288020188555050505b505050505050565b60006020820190508181036000830152612e5e81846122df565b905092915050565b7f4e6f206561726e696e677320746f207769746864726177000000000000000000600082015250565b6000612e9c6017836122a4565b9150612ea782612e66565b602082019050919050565b60006020820190508181036000830152612ecb81612e8f565b9050919050565b7f496e73756666696369656e7420636f6e74726163742062616c616e6365000000600082015250565b6000612f08601d836122a4565b9150612f1382612ed2565b602082019050919050565b60006020820190508181036000830152612f3781612efb565b905091905056fea26469706673582212207765f7d04b7f584df4ac4061131e596d21ee2a9478d5896323cd98d7ad3988c564736f6c63430008110033",
  "linkReferences": {},
  "deployedLinkReferences": {}
}